:100F4E000A128A11AA2FCF27DA2705308500093019
:100F5E008600E727093086000630B0001230850083
:100F6E00ED2700308500ED27B00BB52F283085001A
:100F7E0024308600E727283085000630B000123076
:100F8E008600ED2700308600ED27B00BC62FAC2F64
:100F9E000313831670308F00D52708003230C0003F
:100FAE00C00BD72F08000313831685018601031784
:100FBE0083168801890103138312850186010800B7
:100FCE006430A000F327A00BE92F08000530A10024
:100FDE00F327A10BEF2F0800C830A200A530A30005
:100FEE000000000000000000A30BF72FA20BF52F4E
:020FFE000800E9
:04400E00F42FFF3F4D
:00000001FF
